:1000F5007D017C007F017E0012008F7F057E00124E
:10010500013F7D027C007F027E0012008F7F057E0D
:100115000012013F7D037C007F037E0012008F7F6C
:10012500057E0012013F7D047C007F047E001200E5
:0A0135008F7F057E0012013F80B6A7
:10013F00EF1FAC0670011E4C600A7D027CEFDCFEE7
:04014F00DDFC80EC67
:010153002289
:0C0154000A083F065B4F666D7D077F6F59
:10008F00EE705BEF14B4080050549000A775F003A6
:10009F00A4C58325F0C583730200BF0200C302000D
:1000AF00C70200CB0200CF0200D70200DF0200E739
:1000BF00D2A4800ED2A48012D2A48016D2A4801A09
:1000CF00C2A4D2A3D2A28016C2A4D2A3C2A2800E6F
:1000DF00C2A4C2A3D2A28006C2A4C2A3C2A27408A1
:0600EF002DF8E6F5802269
:03000000020003F8
:0C000300787FE4F6D8FD75811102004AF8
:10000F000200F5E493A3F8E493A34003F68001F212
:10001F0008DFF48029E493A3F85407240CC8C333F2
:10002F00C4540F4420C8834004F456800146F6DFC1
:10003F00E4800B0102040810204080900154E47EFC
:10004F00019360BCA3FF543F30E509541FFEE493B6
:10005F00A360010ECF54C025E060A840B8E493A37D
:10006F00FAE493A3F8E493A3C8C582C8CAC583CAA8
:10007F00F0A3C8C582C8CAC583CADFE9DEE780BE60
:01016000009E
:00000001FF
