:0E009600007D047C817B77DBFEDCFCDDFAEF75
:0100A4002239
:10000300C2A07FF47E01120096C2A17FF47E01128A
:100013000096C2A27F907E01120096C2A37F907EBB
:1000230001120096C2A47F2C7E01120096C2A57F06
:100033002C7E01120096C2A67FC87E00120096C2D3
:10004300A77FC87E00120096D2A77F647E001200AD
:1000530096D2A67F5A7E00120096D2A57F507E00CC
:10006300120096D2A47F467E00120096D2A37F3C54
:100073007E00120096D2A27F327E00120096D2A199
:100083007F287E00120096D2A07F1E7E001200966B
:0300930002000365
:030000000200A556
:0C00A500787FE4F6D8FD758107020003A7
:00000001FF
